{
  "contractName": "TicketXP",
  "abi": [
    {
      "inputs": [
        {
          "internalType": "uint256",
          "name": "",
          "type": "uint256"
        }
      ],
      "name": "events",
      "outputs": [
        {
          "internalType": "address",
          "name": "",
          "type": "address"
        }
      ],
      "stateMutability": "view",
      "type": "function",
      "constant": true
    },
    {
      "inputs": [],
      "name": "getAllEvents",
      "outputs": [
        {
          "internalType": "address[]",
          "name": "",
          "type": "address[]"
        }
      ],
      "stateMutability": "view",
      "type": "function",
      "constant": true
    },
    {
      "inputs": [
        {
          "internalType": "uint64",
          "name": "_amountOfTickets",
          "type": "uint64"
        }
      ],
      "name": "createEvent",
      "outputs": [],
      "stateMutability": "nonpayable",
      "type": "function"
    }
  ],
  "bytecode": "0x608060405234801561001057600080fd5b506108ff806100206000396000f3fe608060405234801561001057600080fd5b50600436106100415760003560e01c80630b791430146100465780639238c35e14610076578063c27a500d14610092575b600080fd5b610060600480360381019061005b9190610264565b6100b0565b60405161006d91906102d2565b60405180910390f35b610090600480360381019061008b919061032d565b6100ef565b005b61009a61018e565b6040516100a79190610418565b60405180910390f35b600081815481106100c057600080fd5b906000526020600020016000915054906101000a900473ffffffffffffffffffffffffffffffffffffffff1681565b6000816040516100fe9061021c565b6101089190610449565b604051809103906000f080158015610124573d6000803e3d6000fd5b5090506000819080600181540180825580915050600190039060005260206000200160009091909190916101000a81548173ffffffffffffffffffffffffffffffffffffffff021916908373ffffffffffffffffffffffffffffffffffffffff1602179055505050565b6060600080548060200260200160405190810160405280929190818152602001828054801561021257602002820191906000526020600020905b8160009054906101000a900473ffffffffffffffffffffffffffffffffffffffff1673ffffffffffffffffffffffffffffffffffffffff16815260200190600101908083116101c8575b5050505050905090565b6104658061046583390190565b600080fd5b6000819050919050565b6102418161022e565b811461024c57600080fd5b50565b60008135905061025e81610238565b92915050565b60006020828403121561027a57610279610229565b5b60006102888482850161024f565b91505092915050565b600073ffffffffffffffffffffffffffffffffffffffff82169050919050565b60006102bc82610291565b9050919050565b6102cc816102b1565b82525050565b60006020820190506102e760008301846102c3565b92915050565b600067ffffffffffffffff82169050919050565b61030a816102ed565b811461031557600080fd5b50565b60008135905061032781610301565b92915050565b60006020828403121561034357610342610229565b5b600061035184828501610318565b91505092915050565b600081519050919050565b600082825260208201905092915050565b6000819050602082019050919050565b61038f816102b1565b82525050565b60006103a18383610386565b60208301905092915050565b6000602082019050919050565b60006103c58261035a565b6103cf8185610365565b93506103da83610376565b8060005b8381101561040b5781516103f28882610395565b97506103fd836103ad565b9250506001810190506103de565b5085935050505092915050565b6000602082019050818103600083015261043281846103ba565b905092915050565b610443816102ed565b82525050565b600060208201905061045e600083018461043a565b9291505056fe608060405234801561001057600080fd5b50604051610465380380610465833981810160405281019061003291906100a5565b806000806101000a81548167ffffffffffffffff021916908367ffffffffffffffff160217905550506100d2565b600080fd5b600067ffffffffffffffff82169050919050565b61008281610065565b811461008d57600080fd5b50565b60008151905061009f81610079565b92915050565b6000602082840312156100bb576100ba610060565b5b60006100c984828501610090565b91505092915050565b610384806100e16000396000f3fe608060405234801561001057600080fd5b506004361061004c5760003560e01c8063410c630b1461005157806345745c10146100815780638f15024f1461009f578063edca914c146100bd575b600080fd5b61006b6004803603810190610066919061023b565b6100c7565b60405161007891906102a9565b60405180910390f35b6100896100fa565b60405161009691906102d3565b60405180910390f35b6100a7610112565b6040516100b491906102d3565b60405180910390f35b6100c561012c565b005b60016020528060005260406000206000915054906101000a900473ffffffffffffffffffffffffffffffffffffffff1681565b60008054906101000a900467ffffffffffffffff1681565b600060089054906101000a900467ffffffffffffffff1681565b6000600881819054906101000a900467ffffffffffffffff16809291906101529061031d565b91906101000a81548167ffffffffffffffff021916908367ffffffffffffffff1602179055505033600160008060089054906101000a900467ffffffffffffffff1667ffffffffffffffff1667ffffffffffffffff16815260200190815260200160002060006101000a81548173ffffffffffffffffffffffffffffffffffffffff021916908373ffffffffffffffffffffffffffffffffffffffff160217905550565b600080fd5b600067ffffffffffffffff82169050919050565b610218816101fb565b811461022357600080fd5b50565b6000813590506102358161020f565b92915050565b600060208284031215610251576102506101f6565b5b600061025f84828501610226565b91505092915050565b600073ffffffffffffffffffffffffffffffffffffffff82169050919050565b600061029382610268565b9050919050565b6102a381610288565b82525050565b60006020820190506102be600083018461029a565b92915050565b6102cd816101fb565b82525050565b60006020820190506102e860008301846102c4565b92915050565b7f4e487b7100000000000000000000000000000000000000000000000000000000600052601160045260246000fd5b6000610328826101fb565b915067ffffffffffffffff821415610343576103426102ee565b5b60018201905091905056fea2646970667358221220faa0927060e1ddc09391ad1f1e7cfbfa70689a85b652dff9bf35c9b707d83dc264736f6c63430008090033a264697066735822122042ecc507b248d3ea36bea82d0776c053eea0ce2863b182fa49be83c3f9b67c2064736f6c63430008090033",
  "immutableReferences": {},
  "source": "// SPDX-License-Identifier: MIT\npragma solidity ^0.8.0;\n\nimport \"./TicketNFT.sol\";\n\n/**\n * @notice This is the factory contract for TicketXP\n */\ncontract TicketXP {\n\n    address[] public events;\n\n    function getAllEvents() public view returns (address[] memory) {\n        return events;\n    }\n\n    function createEvent(uint64 _amountOfTickets) public {\n        TicketNFT newContract = new TicketNFT(_amountOfTickets);\n        events.push(address(newContract)); \n    }\n}",
  "sourcePath": "/home/jack/TicketXP-CV-showcase-/contracts/TicketXP.sol",
  "compiler": {
    "name": "solc",
    "version": "0.8.9+commit.e5eed63a.Emscripten.clang"
  },
  "schemaVersion": "3.4.16",
  "updatedAt": "2023-11-02T12:29:37.112Z",
  "networkType": "ethereum",
  "devdoc": {
    "kind": "dev",
    "methods": {},
    "version": 1
  },
  "userdoc": {
    "kind": "user",
    "methods": {},
    "notice": "This is the factory contract for TicketXP",
    "version": 1
  }
}