{
  "contractName": "TicketNFT",
  "abi": [
    {
      "inputs": [
        {
          "internalType": "uint64",
          "name": "_numberOfTickets",
          "type": "uint64"
        }
      ],
      "stateMutability": "nonpayable",
      "type": "constructor"
    },
    {
      "inputs": [],
      "name": "numberOfTickets",
      "outputs": [
        {
          "internalType": "uint64",
          "name": "",
          "type": "uint64"
        }
      ],
      "stateMutability": "view",
      "type": "function"
    },
    {
      "inputs": [
        {
          "internalType": "uint64",
          "name": "",
          "type": "uint64"
        }
      ],
      "name": "tickets",
      "outputs": [
        {
          "internalType": "address",
          "name": "",
          "type": "address"
        }
      ],
      "stateMutability": "view",
      "type": "function"
    },
    {
      "inputs": [],
      "name": "ticketsSold",
      "outputs": [
        {
          "internalType": "uint64",
          "name": "",
          "type": "uint64"
        }
      ],
      "stateMutability": "view",
      "type": "function"
    },
    {
      "inputs": [],
      "name": "buyTicket",
      "outputs": [],
      "stateMutability": "nonpayable",
      "type": "function"
    }
  ],
  "bytecode": "0x608060405234801561001057600080fd5b50604051610465380380610465833981810160405281019061003291906100a5565b806000806101000a81548167ffffffffffffffff021916908367ffffffffffffffff160217905550506100d2565b600080fd5b600067ffffffffffffffff82169050919050565b61008281610065565b811461008d57600080fd5b50565b60008151905061009f81610079565b92915050565b6000602082840312156100bb576100ba610060565b5b60006100c984828501610090565b91505092915050565b610384806100e16000396000f3fe608060405234801561001057600080fd5b506004361061004c5760003560e01c8063410c630b1461005157806345745c10146100815780638f15024f1461009f578063edca914c146100bd575b600080fd5b61006b6004803603810190610066919061023b565b6100c7565b60405161007891906102a9565b60405180910390f35b6100896100fa565b60405161009691906102d3565b60405180910390f35b6100a7610112565b6040516100b491906102d3565b60405180910390f35b6100c561012c565b005b60016020528060005260406000206000915054906101000a900473ffffffffffffffffffffffffffffffffffffffff1681565b60008054906101000a900467ffffffffffffffff1681565b600060089054906101000a900467ffffffffffffffff1681565b6000600881819054906101000a900467ffffffffffffffff16809291906101529061031d565b91906101000a81548167ffffffffffffffff021916908367ffffffffffffffff1602179055505033600160008060089054906101000a900467ffffffffffffffff1667ffffffffffffffff1667ffffffffffffffff16815260200190815260200160002060006101000a81548173ffffffffffffffffffffffffffffffffffffffff021916908373ffffffffffffffffffffffffffffffffffffffff160217905550565b600080fd5b600067ffffffffffffffff82169050919050565b610218816101fb565b811461022357600080fd5b50565b6000813590506102358161020f565b92915050565b600060208284031215610251576102506101f6565b5b600061025f84828501610226565b91505092915050565b600073ffffffffffffffffffffffffffffffffffffffff82169050919050565b600061029382610268565b9050919050565b6102a381610288565b82525050565b60006020820190506102be600083018461029a565b92915050565b6102cd816101fb565b82525050565b60006020820190506102e860008301846102c4565b92915050565b7f4e487b7100000000000000000000000000000000000000000000000000000000600052601160045260246000fd5b6000610328826101fb565b915067ffffffffffffffff821415610343576103426102ee565b5b60018201905091905056fea2646970667358221220faa0927060e1ddc09391ad1f1e7cfbfa70689a85b652dff9bf35c9b707d83dc264736f6c63430008090033",
  "immutableReferences": {},
  "source": "// SPDX-License-Identifier: MIT\npragma solidity ^0.8.0;\n\ncontract TicketNFT{\n\n    uint64 public  numberOfTickets;\n    uint64 public ticketsSold;\n    mapping (uint64 => address) public tickets;\n\n    function buyTicket () public {\n        ticketsSold ++;\n        tickets[ticketsSold] = msg.sender;\n    }\n\n    constructor(uint64 _numberOfTickets) {\n        numberOfTickets = _numberOfTickets;\n    }\n}",
  "sourcePath": "/home/jack/TicketXP-CV-showcase-/contracts/TicketNFT.sol",
  "compiler": {
    "name": "solc",
    "version": "0.8.9+commit.e5eed63a.Emscripten.clang"
  },
  "schemaVersion": "3.4.16",
  "updatedAt": "2023-11-23T14:07:44.356Z",
  "devdoc": {
    "kind": "dev",
    "methods": {},
    "version": 1
  },
  "userdoc": {
    "kind": "user",
    "methods": {},
    "version": 1
  }
}