{
  "contractName": "TicketNFT",
  "abi": [
    {
      "inputs": [
        {
          "internalType": "uint256",
          "name": "",
          "type": "uint256"
        }
      ],
      "name": "tickets",
      "outputs": [
        {
          "internalType": "string",
          "name": "",
          "type": "string"
        }
      ],
      "stateMutability": "view",
      "type": "function",
      "constant": true
    },
    {
      "inputs": [],
      "name": "createTicket",
      "outputs": [],
      "stateMutability": "nonpayable",
      "type": "function"
    }
  ],
  "bytecode": "0x608060405234801561001057600080fd5b506103ee806100206000396000f3fe608060405234801561001057600080fd5b50600436106100365760003560e01c80631d2717091461003b57806350b4471214610045575b600080fd5b610043610075565b005b61005f600480360381019061005a919061026f565b6100e5565b60405161006c9190610335565b60405180910390f35b600080600181540180825580915050600190039060005260206000200160006040518060400160405280600681526020017f5469636b65740000000000000000000000000000000000000000000000000000815250909190915090805190602001906100e2929190610191565b50565b600081815481106100f557600080fd5b90600052602060002001600091509050805461011090610386565b80601f016020809104026020016040519081016040528092919081815260200182805461013c90610386565b80156101895780601f1061015e57610100808354040283529160200191610189565b820191906000526020600020905b81548152906001019060200180831161016c57829003601f168201915b505050505081565b82805461019d90610386565b90600052602060002090601f0160209004810192826101bf5760008555610206565b82601f106101d857805160ff1916838001178555610206565b82800160010185558215610206579182015b828111156102055782518255916020019190600101906101ea565b5b5090506102139190610217565b5090565b5b80821115610230576000816000905550600101610218565b5090565b600080fd5b6000819050919050565b61024c81610239565b811461025757600080fd5b50565b60008135905061026981610243565b92915050565b60006020828403121561028557610284610234565b5b60006102938482850161025a565b91505092915050565b600081519050919050565b600082825260208201905092915050565b60005b838110156102d65780820151818401526020810190506102bb565b838111156102e5576000848401525b50505050565b6000601f19601f8301169050919050565b60006103078261029c565b61031181856102a7565b93506103218185602086016102b8565b61032a816102eb565b840191505092915050565b6000602082019050818103600083015261034f81846102fc565b905092915050565b7f4e487b7100000000000000000000000000000000000000000000000000000000600052602260045260246000fd5b6000600282049050600182168061039e57607f821691505b602082108114156103b2576103b1610357565b5b5091905056fea2646970667358221220cf8e5823dfb4ed363cf0bd73d038d0d5ccaaff6e81ff13200a5a86dfddde54b464736f6c63430008090033",
  "immutableReferences": {},
  "source": "// SPDX-License-Identifier: MIT\npragma solidity ^0.8.9;\n\ncontract TicketNFT{\n\n    string[] public  tickets;\n\n    function createTicket () public {\n        tickets.push(\"Ticket\");\n    }\n}",
  "sourcePath": "/home/jack/nftsite/contracts/TicketNFT.sol",
  "compiler": {
    "name": "solc",
    "version": "0.8.9+commit.e5eed63a.Emscripten.clang"
  },
  "schemaVersion": "3.4.3",
  "updatedAt": "2023-10-20T12:59:50.216Z",
  "networkType": "ethereum",
  "devdoc": {
    "kind": "dev",
    "methods": {},
    "version": 1
  },
  "userdoc": {
    "kind": "user",
    "methods": {},
    "version": 1
  }
}