{
  "contractName": "TicketXP",
  "abi": [
    {
      "anonymous": false,
      "inputs": [
        {
          "indexed": false,
          "internalType": "contract TicketNFT",
          "name": "contractData",
          "type": "address"
        }
      ],
      "name": "EventCreated",
      "type": "event"
    },
    {
      "inputs": [
        {
          "internalType": "uint256",
          "name": "_eventId",
          "type": "uint256"
        }
      ],
      "name": "getEvent",
      "outputs": [
        {
          "internalType": "contract TicketNFT",
          "name": "",
          "type": "address"
        }
      ],
      "stateMutability": "view",
      "type": "function",
      "constant": true
    },
    {
      "inputs": [
        {
          "internalType": "uint256",
          "name": "_eventId",
          "type": "uint256"
        },
        {
          "internalType": "uint64",
          "name": "_amountOfTickets",
          "type": "uint64"
        }
      ],
      "name": "createEvent",
      "outputs": [],
      "stateMutability": "nonpayable",
      "type": "function"
    },
    {
      "inputs": [
        {
          "internalType": "uint256",
          "name": "_eventId",
          "type": "uint256"
        },
        {
          "internalType": "uint64",
          "name": "_numberOfTickets",
          "type": "uint64"
        }
      ],
      "name": "buyTicket",
      "outputs": [],
      "stateMutability": "payable",
      "type": "function",
      "payable": true
    },
    {
      "inputs": [
        {
          "internalType": "uint256",
          "name": "_eventId",
          "type": "uint256"
        },
        {
          "internalType": "uint64",
          "name": "_ticketId",
          "type": "uint64"
        }
      ],
      "name": "getTicketDetails",
      "outputs": [
        {
          "internalType": "address",
          "name": "",
          "type": "address"
        }
      ],
      "stateMutability": "view",
      "type": "function",
      "constant": true
    }
  ],
  "bytecode": "0x608060405234801561001057600080fd5b50611079806100206000396000f3fe60806040526004361061003f5760003560e01c80633e6e5cbb146100445780634a6d09151461006d5780636d1884e0146100aa578063b2fa6f49146100e7575b600080fd5b34801561005057600080fd5b5061006b600480360381019061006691906103f6565b610103565b005b34801561007957600080fd5b50610094600480360381019061008f91906103f6565b6101cb565b6040516100a19190610477565b60405180910390f35b3480156100b657600080fd5b506100d160048036038101906100cc9190610492565b610290565b6040516100de919061051e565b60405180910390f35b61010160048036038101906100fc91906103f6565b6102cc565b005b60008160016040516101149061036e565b61011f929190610583565b604051809103906000f08015801561013b573d6000803e3d6000fd5b5090508060008085815260200190815260200160002060006101000a81548173ffffffffffffffffffffffffffffffffffffffff021916908373ffffffffffffffffffffffffffffffffffffffff1602179055507ffc8a4c0621b9788c4dbe57053a51ce2d22625a067d039f38004df2a07ca755a4816040516101be919061051e565b60405180910390a1505050565b600080600084815260200190815260200160002060009054906101000a900473ffffffffffffffffffffffffffffffffffffffff1673ffffffffffffffffffffffffffffffffffffffff16638b81c39d836040518263ffffffff1660e01b815260040161023891906105ac565b60206040518083038186803b15801561025057600080fd5b505afa158015610264573d6000803e3d6000fd5b505050506040513d601f19601f8201168201806040525081019061028891906105f3565b905092915050565b600080600083815260200190815260200160002060009054906101000a900473ffffffffffffffffffffffffffffffffffffffff169050919050565b60008083815260200190815260200160002060009054906101000a900473ffffffffffffffffffffffffffffffffffffffff1673ffffffffffffffffffffffffffffffffffffffff166388d733b534836040518363ffffffff1660e01b815260040161033891906105ac565b6000604051808303818588803b15801561035157600080fd5b505af1158015610365573d6000803e3d6000fd5b50505050505050565b610a238061062183390190565b600080fd5b6000819050919050565b61039381610380565b811461039e57600080fd5b50565b6000813590506103b08161038a565b92915050565b600067ffffffffffffffff82169050919050565b6103d3816103b6565b81146103de57600080fd5b50565b6000813590506103f0816103ca565b92915050565b6000806040838503121561040d5761040c61037b565b5b600061041b858286016103a1565b925050602061042c858286016103e1565b9150509250929050565b600073ffffffffffffffffffffffffffffffffffffffff82169050919050565b600061046182610436565b9050919050565b61047181610456565b82525050565b600060208201905061048c6000830184610468565b92915050565b6000602082840312156104a8576104a761037b565b5b60006104b6848285016103a1565b91505092915050565b6000819050919050565b60006104e46104df6104da84610436565b6104bf565b610436565b9050919050565b60006104f6826104c9565b9050919050565b6000610508826104eb565b9050919050565b610518816104fd565b82525050565b6000602082019050610533600083018461050f565b92915050565b610542816103b6565b82525050565b6000819050919050565b600061056d61056861056384610548565b6104bf565b610380565b9050919050565b61057d81610552565b82525050565b60006040820190506105986000830185610539565b6105a56020830184610574565b9392505050565b60006020820190506105c16000830184610539565b92915050565b6105d081610456565b81146105db57600080fd5b50565b6000815190506105ed816105c7565b92915050565b6000602082840312156106095761060861037b565b5b6000610617848285016105de565b9150509291505056fe608060405234801561001057600080fd5b50604051610a23380380610a23833981810160405281019061003291906100e3565b816000806101000a81548167ffffffffffffffff021916908367ffffffffffffffff160217905550806001819055505050610123565b600080fd5b600067ffffffffffffffff82169050919050565b61008a8161006d565b811461009557600080fd5b50565b6000815190506100a781610081565b92915050565b6000819050919050565b6100c0816100ad565b81146100cb57600080fd5b50565b6000815190506100dd816100b7565b92915050565b600080604083850312156100fa576100f9610068565b5b600061010885828601610098565b9250506020610119858286016100ce565b9150509250929050565b6108f1806101326000396000f3fe6080604052600436106100705760003560e01c80635d359fbd1161004e5780635d359fbd1461010857806388d733b5146101315780638b81c39d1461014d5780638f15024f1461018a57610070565b80631209b1f614610075578063410c630b146100a057806345745c10146100dd575b600080fd5b34801561008157600080fd5b5061008a6101b5565b604051610097919061055b565b60405180910390f35b3480156100ac57600080fd5b506100c760048036038101906100c291906105bb565b6101bb565b6040516100d49190610629565b60405180910390f35b3480156100e957600080fd5b506100f26101ee565b6040516100ff9190610653565b60405180910390f35b34801561011457600080fd5b5061012f600480360381019061012a919061069a565b610206565b005b61014b600480360381019061014691906105bb565b6102ef565b005b34801561015957600080fd5b50610174600480360381019061016f91906105bb565b6104d7565b6040516101819190610629565b60405180910390f35b34801561019657600080fd5b5061019f610528565b6040516101ac9190610653565b60405180910390f35b60015481565b60026020528060005260406000206000915054906101000a900473ffffffffffffffffffffffffffffffffffffffff1681565b60008054906101000a900467ffffffffffffffff1681565b600260008267ffffffffffffffff1667ffffffffffffffff16815260200190815260200160002060009054906101000a900473ffffffffffffffffffffffffffffffffffffffff1673ffffffffffffffffffffffffffffffffffffffff163373ffffffffffffffffffffffffffffffffffffffff161461028557600080fd5b81600260008367ffffffffffffffff1667ffffffffffffffff16815260200190815260200160002060006101000a81548173ffffffffffffffffffffffffffffffffffffffff021916908373ffffffffffffffffffffffffffffffffffffffff1602179055505050565b60008167ffffffffffffffff166001546103099190610709565b905080341461034d576040517f08c379a0000000000000000000000000000000000000000000000000000000008152600401610344906107c0565b60405180910390fd5b60008054906101000a900467ffffffffffffffff1667ffffffffffffffff1682600060089054906101000a900467ffffffffffffffff1661038e91906107e0565b67ffffffffffffffff16106103d8576040517f08c379a00000000000000000000000000000000000000000000000000000000081526004016103cf9061086a565b60405180910390fd5b60005b8267ffffffffffffffff168167ffffffffffffffff1610156104d2576000600881819054906101000a900467ffffffffffffffff168092919061041d9061088a565b91906101000a81548167ffffffffffffffff021916908367ffffffffffffffff1602179055505033600260008060089054906101000a900467ffffffffffffffff1667ffffffffffffffff1667ffffffffffffffff16815260200190815260200160002060006101000a81548173ffffffffffffffffffffffffffffffffffffffff021916908373ffffffffffffffffffffffffffffffffffffffff16021790555080806104ca9061088a565b9150506103db565b505050565b6000600260008367ffffffffffffffff1667ffffffffffffffff16815260200190815260200160002060009054906101000a900473ffffffffffffffffffffffffffffffffffffffff169050919050565b600060089054906101000a900467ffffffffffffffff1681565b6000819050919050565b61055581610542565b82525050565b6000602082019050610570600083018461054c565b92915050565b600080fd5b600067ffffffffffffffff82169050919050565b6105988161057b565b81146105a357600080fd5b50565b6000813590506105b58161058f565b92915050565b6000602082840312156105d1576105d0610576565b5b60006105df848285016105a6565b91505092915050565b600073ffffffffffffffffffffffffffffffffffffffff82169050919050565b6000610613826105e8565b9050919050565b61062381610608565b82525050565b600060208201905061063e600083018461061a565b92915050565b61064d8161057b565b82525050565b60006020820190506106686000830184610644565b92915050565b61067781610608565b811461068257600080fd5b50565b6000813590506106948161066e565b92915050565b600080604083850312156106b1576106b0610576565b5b60006106bf85828601610685565b92505060206106d0858286016105a6565b9150509250929050565b7f4e487b7100000000000000000000000000000000000000000000000000000000600052601160045260246000fd5b600061071482610542565b915061071f83610542565b9250817fffffffffffffffffffffffffffffffffffffffffffffffffffffffffffffffff0483118215151615610758576107576106da565b5b828202905092915050565b600082825260208201905092915050565b7f57726f6e6720616d6f756e742073656e74000000000000000000000000000000600082015250565b60006107aa601183610763565b91506107b582610774565b602082019050919050565b600060208201905081810360008301526107d98161079d565b9050919050565b60006107eb8261057b565b91506107f68361057b565b92508267ffffffffffffffff03821115610813576108126106da565b5b828201905092915050565b7f546f6f206d616e79207469636b65747300000000000000000000000000000000600082015250565b6000610854601083610763565b915061085f8261081e565b602082019050919050565b6000602082019050818103600083015261088381610847565b9050919050565b60006108958261057b565b915067ffffffffffffffff8214156108b0576108af6106da565b5b60018201905091905056fea2646970667358221220beae4023e45d82e71813aaa86d5c8151d98e89371d2d08e8c853f36161087d4764736f6c63430008090033a264697066735822122027a2531023bc3a0a4b197eb448ccd29bbe61ff41832c792b42e44dc9ae3f3bf764736f6c63430008090033",
  "immutableReferences": {},
  "source": "// SPDX-License-Identifier: MIT\npragma solidity ^0.8.9;\n\nimport \"./EventXP.sol\";\n\n/**\n * @dev This is the factory contract for TicketXP\n * @notice Run all functions from the interface on this contract\n */\ncontract TicketXP {\n    mapping (uint256 => TicketNFT) eventContract;\n    event EventCreated(TicketNFT contractData);\n\n    function getEvent(uint256 _eventId) public view returns (TicketNFT) {\n        return eventContract[_eventId];\n    }\n\n    function createEvent(uint256 _eventId, uint64 _amountOfTickets) public {\n        TicketNFT newContract = new TicketNFT(_amountOfTickets,1);\n        eventContract[_eventId] = ((newContract)); \n        emit EventCreated(newContract);\n    }\n\n    function buyTicket(uint256 _eventId, uint64 _numberOfTickets) public payable {\n        eventContract[_eventId].buyTicket{value:msg.value}(_numberOfTickets);\n    }\n\n    function getTicketDetails(uint256 _eventId, uint64 _ticketId) public view returns(address){\n        return eventContract[_eventId].ticketOwner(_ticketId);\n    }\n}",
  "sourcePath": "/home/jack/TicketXP-CV-showcase-/contracts/TicketXP.sol",
  "compiler": {
    "name": "solc",
    "version": "0.8.9+commit.e5eed63a.Emscripten.clang"
  },
  "schemaVersion": "3.4.16",
  "updatedAt": "2023-11-23T14:07:46.111Z",
  "networkType": "ethereum",
  "devdoc": {
    "details": "This is the factory contract for TicketXP",
    "kind": "dev",
    "methods": {},
    "version": 1
  },
  "userdoc": {
    "kind": "user",
    "methods": {},
    "notice": "Run all functions from the interface on this contract",
    "version": 1
  }
}