{
  "contractName": "TicketXP",
  "abi": [
    {
      "inputs": [],
      "stateMutability": "nonpayable",
      "type": "constructor"
    },
    {
      "inputs": [
        {
          "internalType": "address",
          "name": "sender",
          "type": "address"
        },
        {
          "internalType": "uint256",
          "name": "tokenId",
          "type": "uint256"
        },
        {
          "internalType": "address",
          "name": "owner",
          "type": "address"
        }
      ],
      "name": "ERC721IncorrectOwner",
      "type": "error"
    },
    {
      "inputs": [
        {
          "internalType": "address",
          "name": "operator",
          "type": "address"
        },
        {
          "internalType": "uint256",
          "name": "tokenId",
          "type": "uint256"
        }
      ],
      "name": "ERC721InsufficientApproval",
      "type": "error"
    },
    {
      "inputs": [
        {
          "internalType": "address",
          "name": "approver",
          "type": "address"
        }
      ],
      "name": "ERC721InvalidApprover",
      "type": "error"
    },
    {
      "inputs": [
        {
          "internalType": "address",
          "name": "operator",
          "type": "address"
        }
      ],
      "name": "ERC721InvalidOperator",
      "type": "error"
    },
    {
      "inputs": [
        {
          "internalType": "address",
          "name": "owner",
          "type": "address"
        }
      ],
      "name": "ERC721InvalidOwner",
      "type": "error"
    },
    {
      "inputs": [
        {
          "internalType": "address",
          "name": "receiver",
          "type": "address"
        }
      ],
      "name": "ERC721InvalidReceiver",
      "type": "error"
    },
    {
      "inputs": [
        {
          "internalType": "address",
          "name": "sender",
          "type": "address"
        }
      ],
      "name": "ERC721InvalidSender",
      "type": "error"
    },
    {
      "inputs": [
        {
          "internalType": "uint256",
          "name": "tokenId",
          "type": "uint256"
        }
      ],
      "name": "ERC721NonexistentToken",
      "type": "error"
    },
    {
      "inputs": [],
      "name": "EnforcedPause",
      "type": "error"
    },
    {
      "inputs": [],
      "name": "ExpectedPause",
      "type": "error"
    },
    {
      "inputs": [],
      "name": "InvalidInitialization",
      "type": "error"
    },
    {
      "inputs": [],
      "name": "NotInitializing",
      "type": "error"
    },
    {
      "inputs": [
        {
          "internalType": "address",
          "name": "owner",
          "type": "address"
        }
      ],
      "name": "OwnableInvalidOwner",
      "type": "error"
    },
    {
      "inputs": [
        {
          "internalType": "address",
          "name": "account",
          "type": "address"
        }
      ],
      "name": "OwnableUnauthorizedAccount",
      "type": "error"
    },
    {
      "anonymous": false,
      "inputs": [
        {
          "indexed": true,
          "internalType": "address",
          "name": "owner",
          "type": "address"
        },
        {
          "indexed": true,
          "internalType": "address",
          "name": "approved",
          "type": "address"
        },
        {
          "indexed": true,
          "internalType": "uint256",
          "name": "tokenId",
          "type": "uint256"
        }
      ],
      "name": "Approval",
      "type": "event"
    },
    {
      "anonymous": false,
      "inputs": [
        {
          "indexed": true,
          "internalType": "address",
          "name": "owner",
          "type": "address"
        },
        {
          "indexed": true,
          "internalType": "address",
          "name": "operator",
          "type": "address"
        },
        {
          "indexed": false,
          "internalType": "bool",
          "name": "approved",
          "type": "bool"
        }
      ],
      "name": "ApprovalForAll",
      "type": "event"
    },
    {
      "anonymous": false,
      "inputs": [
        {
          "indexed": false,
          "internalType": "uint64",
          "name": "version",
          "type": "uint64"
        }
      ],
      "name": "Initialized",
      "type": "event"
    },
    {
      "anonymous": false,
      "inputs": [
        {
          "indexed": true,
          "internalType": "address",
          "name": "previousOwner",
          "type": "address"
        },
        {
          "indexed": true,
          "internalType": "address",
          "name": "newOwner",
          "type": "address"
        }
      ],
      "name": "OwnershipTransferred",
      "type": "event"
    },
    {
      "anonymous": false,
      "inputs": [
        {
          "indexed": false,
          "internalType": "address",
          "name": "account",
          "type": "address"
        }
      ],
      "name": "Paused",
      "type": "event"
    },
    {
      "anonymous": false,
      "inputs": [
        {
          "indexed": true,
          "internalType": "address",
          "name": "from",
          "type": "address"
        },
        {
          "indexed": true,
          "internalType": "address",
          "name": "to",
          "type": "address"
        },
        {
          "indexed": true,
          "internalType": "uint256",
          "name": "tokenId",
          "type": "uint256"
        }
      ],
      "name": "Transfer",
      "type": "event"
    },
    {
      "anonymous": false,
      "inputs": [
        {
          "indexed": false,
          "internalType": "address",
          "name": "account",
          "type": "address"
        }
      ],
      "name": "Unpaused",
      "type": "event"
    },
    {
      "inputs": [
        {
          "internalType": "address",
          "name": "to",
          "type": "address"
        },
        {
          "internalType": "uint256",
          "name": "tokenId",
          "type": "uint256"
        }
      ],
      "name": "approve",
      "outputs": [],
      "stateMutability": "nonpayable",
      "type": "function"
    },
    {
      "inputs": [
        {
          "internalType": "address",
          "name": "owner",
          "type": "address"
        }
      ],
      "name": "balanceOf",
      "outputs": [
        {
          "internalType": "uint256",
          "name": "",
          "type": "uint256"
        }
      ],
      "stateMutability": "view",
      "type": "function"
    },
    {
      "inputs": [
        {
          "internalType": "uint256",
          "name": "tokenId",
          "type": "uint256"
        }
      ],
      "name": "burn",
      "outputs": [],
      "stateMutability": "nonpayable",
      "type": "function"
    },
    {
      "inputs": [
        {
          "internalType": "uint256",
          "name": "tokenId",
          "type": "uint256"
        }
      ],
      "name": "getApproved",
      "outputs": [
        {
          "internalType": "address",
          "name": "",
          "type": "address"
        }
      ],
      "stateMutability": "view",
      "type": "function"
    },
    {
      "inputs": [
        {
          "internalType": "address",
          "name": "owner",
          "type": "address"
        },
        {
          "internalType": "address",
          "name": "operator",
          "type": "address"
        }
      ],
      "name": "isApprovedForAll",
      "outputs": [
        {
          "internalType": "bool",
          "name": "",
          "type": "bool"
        }
      ],
      "stateMutability": "view",
      "type": "function"
    },
    {
      "inputs": [],
      "name": "name",
      "outputs": [
        {
          "internalType": "string",
          "name": "",
          "type": "string"
        }
      ],
      "stateMutability": "view",
      "type": "function"
    },
    {
      "inputs": [],
      "name": "owner",
      "outputs": [
        {
          "internalType": "address",
          "name": "",
          "type": "address"
        }
      ],
      "stateMutability": "view",
      "type": "function"
    },
    {
      "inputs": [
        {
          "internalType": "uint256",
          "name": "tokenId",
          "type": "uint256"
        }
      ],
      "name": "ownerOf",
      "outputs": [
        {
          "internalType": "address",
          "name": "",
          "type": "address"
        }
      ],
      "stateMutability": "view",
      "type": "function"
    },
    {
      "inputs": [],
      "name": "paused",
      "outputs": [
        {
          "internalType": "bool",
          "name": "",
          "type": "bool"
        }
      ],
      "stateMutability": "view",
      "type": "function"
    },
    {
      "inputs": [],
      "name": "renounceOwnership",
      "outputs": [],
      "stateMutability": "nonpayable",
      "type": "function"
    },
    {
      "inputs": [
        {
          "internalType": "address",
          "name": "from",
          "type": "address"
        },
        {
          "internalType": "address",
          "name": "to",
          "type": "address"
        },
        {
          "internalType": "uint256",
          "name": "tokenId",
          "type": "uint256"
        }
      ],
      "name": "safeTransferFrom",
      "outputs": [],
      "stateMutability": "nonpayable",
      "type": "function"
    },
    {
      "inputs": [
        {
          "internalType": "address",
          "name": "from",
          "type": "address"
        },
        {
          "internalType": "address",
          "name": "to",
          "type": "address"
        },
        {
          "internalType": "uint256",
          "name": "tokenId",
          "type": "uint256"
        },
        {
          "internalType": "bytes",
          "name": "data",
          "type": "bytes"
        }
      ],
      "name": "safeTransferFrom",
      "outputs": [],
      "stateMutability": "nonpayable",
      "type": "function"
    },
    {
      "inputs": [
        {
          "internalType": "address",
          "name": "operator",
          "type": "address"
        },
        {
          "internalType": "bool",
          "name": "approved",
          "type": "bool"
        }
      ],
      "name": "setApprovalForAll",
      "outputs": [],
      "stateMutability": "nonpayable",
      "type": "function"
    },
    {
      "inputs": [
        {
          "internalType": "bytes4",
          "name": "interfaceId",
          "type": "bytes4"
        }
      ],
      "name": "supportsInterface",
      "outputs": [
        {
          "internalType": "bool",
          "name": "",
          "type": "bool"
        }
      ],
      "stateMutability": "view",
      "type": "function"
    },
    {
      "inputs": [],
      "name": "symbol",
      "outputs": [
        {
          "internalType": "string",
          "name": "",
          "type": "string"
        }
      ],
      "stateMutability": "view",
      "type": "function"
    },
    {
      "inputs": [
        {
          "internalType": "uint256",
          "name": "tokenId",
          "type": "uint256"
        }
      ],
      "name": "tokenURI",
      "outputs": [
        {
          "internalType": "string",
          "name": "",
          "type": "string"
        }
      ],
      "stateMutability": "view",
      "type": "function"
    },
    {
      "inputs": [
        {
          "internalType": "address",
          "name": "from",
          "type": "address"
        },
        {
          "internalType": "address",
          "name": "to",
          "type": "address"
        },
        {
          "internalType": "uint256",
          "name": "tokenId",
          "type": "uint256"
        }
      ],
      "name": "transferFrom",
      "outputs": [],
      "stateMutability": "nonpayable",
      "type": "function"
    },
    {
      "inputs": [
        {
          "internalType": "address",
          "name": "newOwner",
          "type": "address"
        }
      ],
      "name": "transferOwnership",
      "outputs": [],
      "stateMutability": "nonpayable",
      "type": "function"
    },
    {
      "inputs": [
        {
          "internalType": "address",
          "name": "initialOwner",
          "type": "address"
        }
      ],
      "name": "initialize",
      "outputs": [],
      "stateMutability": "nonpayable",
      "type": "function"
    },
    {
      "inputs": [],
      "name": "pause",
      "outputs": [],
      "stateMutability": "nonpayable",
      "type": "function"
    },
    {
      "inputs": [],
      "name": "unpause",
      "outputs": [],
      "stateMutability": "nonpayable",
      "type": "function"
    },
    {
      "inputs": [
        {
          "internalType": "address",
          "name": "to",
          "type": "address"
        },
        {
          "internalType": "uint256",
          "name": "tokenId",
          "type": "uint256"
        }
      ],
      "name": "safeMint",
      "outputs": [],
      "stateMutability": "nonpayable",
      "type": "function"
    }
  ],
  "bytecode": "0x608060405234801562000010575f80fd5b50620000216200002760201b60201c565b62000191565b5f620000386200012b60201b60201c565b9050805f0160089054906101000a900460ff161562000083576040517ff92ee8a900000000000000000000000000000000000000000000000000000000815260040160405180910390fd5b67ffffffffffffffff8016815f015f9054906101000a900467ffffffffffffffff1667ffffffffffffffff1614620001285767ffffffffffffffff815f015f6101000a81548167ffffffffffffffff021916908367ffffffffffffffff1602179055507fc7f505b2f371ae2175ee4913f4499e1f2633a7b5936321eed1cdaeb6115181d267ffffffffffffffff6040516200011f919062000176565b60405180910390a15b50565b5f7ff0c57e16840df040f15088dc2f81fe391c3923bec73e23a9662efc9c229c6a00905090565b5f67ffffffffffffffff82169050919050565b620001708162000152565b82525050565b5f6020820190506200018b5f83018462000165565b92915050565b6129f3806200019f5f395ff3fe608060405234801561000f575f80fd5b5060043610610140575f3560e01c8063715018a6116100b6578063a22cb4651161007a578063a22cb46514610326578063b88d4fde14610342578063c4d66de81461035e578063c87b56dd1461037a578063e985e9c5146103aa578063f2fde38b146103da57610140565b8063715018a6146102ba5780638456cb59146102c45780638da5cb5b146102ce57806395d89b41146102ec578063a14481941461030a57610140565b80633f4ba83a116101085780633f4ba83a146101fa57806342842e0e1461020457806342966c68146102205780635c975abb1461023c5780636352211e1461025a57806370a082311461028a57610140565b806301ffc9a71461014457806306fdde0314610174578063081812fc14610192578063095ea7b3146101c257806323b872dd146101de575b5f80fd5b61015e60048036038101906101599190611fb3565b6103f6565b60405161016b9190611ff8565b60405180910390f35b61017c6104d7565b604051610189919061209b565b60405180910390f35b6101ac60048036038101906101a791906120ee565b610574565b6040516101b99190612158565b60405180910390f35b6101dc60048036038101906101d7919061219b565b61058f565b005b6101f860048036038101906101f391906121d9565b6105a5565b005b6102026106a4565b005b61021e600480360381019061021991906121d9565b6106b6565b005b61023a600480360381019061023591906120ee565b6106d5565b005b6102446106eb565b6040516102519190611ff8565b60405180910390f35b610274600480360381019061026f91906120ee565b61070d565b6040516102819190612158565b60405180910390f35b6102a4600480360381019061029f9190612229565b61071e565b6040516102b19190612263565b60405180910390f35b6102c26107e2565b005b6102cc6107f5565b005b6102d6610807565b6040516102e39190612158565b60405180910390f35b6102f461083c565b604051610301919061209b565b60405180910390f35b610324600480360381019061031f919061219b565b6108da565b005b610340600480360381019061033b91906122a6565b6108f0565b005b61035c60048036038101906103579190612410565b610906565b005b61037860048036038101906103739190612229565b610923565b005b610394600480360381019061038f91906120ee565b610b28565b6040516103a1919061209b565b60405180910390f35b6103c460048036038101906103bf9190612490565b610b8e565b6040516103d19190611ff8565b60405180910390f35b6103f460048036038101906103ef9190612229565b610c2a565b005b5f7f80ac58cd000000000000000000000000000000000000000000000000000000007bffffffffffffffffffffffffffffffffffffffffffffffffffffffff1916827bffffffffffffffffffffffffffffffffffffffffffffffffffffffff191614806104c057507f5b5e139f000000000000000000000000000000000000000000000000000000007bffffffffffffffffffffffffffffffffffffffffffffffffffffffff1916827bffffffffffffffffffffffffffffffffffffffffffffffffffffffff1916145b806104d057506104cf82610cae565b5b9050919050565b60605f6104e2610d17565b9050805f0180546104f2906124fb565b80601f016020809104026020016040519081016040528092919081815260200182805461051e906124fb565b80156105695780601f1061054057610100808354040283529160200191610569565b820191905f5260205f20905b81548152906001019060200180831161054c57829003601f168201915b505050505091505090565b5f61057e82610d3e565b5061058882610dc4565b9050919050565b6105a1828261059c610e0b565b610e12565b5050565b5f73ffffffffffffffffffffffffffffffffffffffff168273ffffffffffffffffffffffffffffffffffffffff1603610615575f6040517f64a0ae9200000000000000000000000000000000000000000000000000000000815260040161060c9190612158565b60405180910390fd5b5f6106288383610623610e0b565b610e24565b90508373ffffffffffffffffffffffffffffffffffffffff168173ffffffffffffffffffffffffffffffffffffffff161461069e578382826040517f64283d7b0000000000000000000000000000000000000000000000000000000081526004016106959392919061252b565b60405180910390fd5b50505050565b6106ac610e39565b6106b4610ec0565b565b6106d083838360405180602001604052805f815250610906565b505050565b6106e75f826106e2610e0b565b610e24565b5050565b5f806106f5610f2e565b9050805f015f9054906101000a900460ff1691505090565b5f61071782610d3e565b9050919050565b5f80610728610d17565b90505f73ffffffffffffffffffffffffffffffffffffffff168373ffffffffffffffffffffffffffffffffffffffff160361079a575f6040517f89c62b640000000000000000000000000000000000000000000000000000000081526004016107919190612158565b60405180910390fd5b806003015f8473ffffffffffffffffffffffffffffffffffffffff1673ffffffffffffffffffffffffffffffffffffffff1681526020019081526020015f2054915050919050565b6107ea610e39565b6107f35f610f55565b565b6107fd610e39565b610805611026565b565b5f80610811611095565b9050805f015f9054906101000a900473ffffffffffffffffffffffffffffffffffffffff1691505090565b60605f610847610d17565b9050806001018054610858906124fb565b80601f0160208091040260200160405190810160405280929190818152602001828054610884906124fb565b80156108cf5780601f106108a6576101008083540402835291602001916108cf565b820191905f5260205f20905b8154815290600101906020018083116108b257829003601f168201915b505050505091505090565b6108e2610e39565b6108ec82826110bc565b5050565b6109026108fb610e0b565b83836110d9565b5050565b6109118484846105a5565b61091d84848484611250565b50505050565b5f61092c611402565b90505f815f0160089054906101000a900460ff161590505f825f015f9054906101000a900467ffffffffffffffff1690505f808267ffffffffffffffff161480156109745750825b90505f60018367ffffffffffffffff161480156109a757505f3073ffffffffffffffffffffffffffffffffffffffff163b145b9050811580156109b5575080155b156109ec576040517ff92ee8a900000000000000000000000000000000000000000000000000000000815260040160405180910390fd5b6001855f015f6101000a81548167ffffffffffffffff021916908367ffffffffffffffff1602179055508315610a39576001855f0160086101000a81548160ff0219169083151502179055505b610aad6040518060400160405280600781526020017f4d79546f6b656e000000000000000000000000000000000000000000000000008152506040518060400160405280600381526020017f4d544b0000000000000000000000000000000000000000000000000000000000815250611429565b610ab561143f565b610abe86611451565b610ac6611465565b8315610b20575f855f0160086101000a81548160ff0219169083151502179055507fc7f505b2f371ae2175ee4913f4499e1f2633a7b5936321eed1cdaeb6115181d26001604051610b1791906125b5565b60405180910390a15b505050505050565b6060610b3382610d3e565b505f610b3d61146f565b90505f815111610b5b5760405180602001604052805f815250610b86565b80610b6584611485565b604051602001610b76929190612608565b6040516020818303038152906040525b915050919050565b5f80610b98610d17565b9050806005015f8573ffffffffffffffffffffffffffffffffffffffff1673ffffffffffffffffffffffffffffffffffffffff1681526020019081526020015f205f8473ffffffffffffffffffffffffffffffffffffffff1673ffffffffffffffffffffffffffffffffffffffff1681526020019081526020015f205f9054906101000a900460ff1691505092915050565b610c32610e39565b5f73ffffffffffffffffffffffffffffffffffffffff168173ffffffffffffffffffffffffffffffffffffffff1603610ca2575f6040517f1e4fbdf7000000000000000000000000000000000000000000000000000000008152600401610c999190612158565b60405180910390fd5b610cab81610f55565b50565b5f7f01ffc9a7000000000000000000000000000000000000000000000000000000007bffffffffffffffffffffffffffffffffffffffffffffffffffffffff1916827bffffffffffffffffffffffffffffffffffffffffffffffffffffffff1916149050919050565b5f7f80bb2b638cc20bc4d0a60d66940f3ab4a00c1d7b313497ca82fb0b4ab0079300905090565b5f80610d498361154f565b90505f73ffffffffffffffffffffffffffffffffffffffff168173ffffffffffffffffffffffffffffffffffffffff1603610dbb57826040517f7e273289000000000000000000000000000000000000000000000000000000008152600401610db29190612263565b60405180910390fd5b80915050919050565b5f80610dce610d17565b9050806004015f8481526020019081526020015f205f9054906101000a900473ffffffffffffffffffffffffffffffffffffffff16915050919050565b5f33905090565b610e1f8383836001611596565b505050565b5f610e30848484611763565b90509392505050565b610e41610e0b565b73ffffffffffffffffffffffffffffffffffffffff16610e5f610807565b73ffffffffffffffffffffffffffffffffffffffff1614610ebe57610e82610e0b565b6040517f118cdaa7000000000000000000000000000000000000000000000000000000008152600401610eb59190612158565b60405180910390fd5b565b610ec8611780565b5f610ed1610f2e565b90505f815f015f6101000a81548160ff0219169083151502179055507f5db9ee0a495bf2e6ff9c91a7834c1ba4fdd244a5e8aa4e537bd38aeae4b073aa610f16610e0b565b604051610f239190612158565b60405180910390a150565b5f7fcd5ed15c6e187e77e9aee88184c21f4f2182ab5827cb3b7e07fbedcd63f03300905090565b5f610f5e611095565b90505f815f015f9054906101000a900473ffffffffffffffffffffffffffffffffffffffff16905082825f015f6101000a81548173ffffffffffffffffffffffffffffffffffffffff021916908373ffffffffffffffffffffffffffffffffffffffff1602179055508273ffffffffffffffffffffffffffffffffffffffff168173ffffffffffffffffffffffffffffffffffffffff167f8be0079c531659141344cd1fd0a4f28419497f9722a3daafe3b4186f6b6457e060405160405180910390a3505050565b61102e6117c0565b5f611037610f2e565b90506001815f015f6101000a81548160ff0219169083151502179055507f62e78cea01bee320cd4e420270b5ea74000d11b0c9f74754ebdbfc544b05a25861107d610e0b565b60405161108a9190612158565b60405180910390a150565b5f7f9016d09d72d40fdae2fd8ceac6b6234c7706214fd39c1cd1e609a0528c199300905090565b6110d5828260405180602001604052805f815250611801565b5050565b5f6110e2610d17565b90505f73ffffffffffffffffffffffffffffffffffffffff168373ffffffffffffffffffffffffffffffffffffffff160361115457826040517f5b08ba1800000000000000000000000000000000000000000000000000000000815260040161114b9190612158565b60405180910390fd5b81816005015f8673ffffffffffffffffffffffffffffffffffffffff1673ffffffffffffffffffffffffffffffffffffffff1681526020019081526020015f205f8573ffffffffffffffffffffffffffffffffffffffff1673ffffffffffffffffffffffffffffffffffffffff1681526020019081526020015f205f6101000a81548160ff0219169083151502179055508273ffffffffffffffffffffffffffffffffffffffff168473ffffffffffffffffffffffffffffffffffffffff167f17307eab39ab6107e8899845ad3d59bd9653f200f220920489ca2b5937696c31846040516112429190611ff8565b60405180910390a350505050565b5f8373ffffffffffffffffffffffffffffffffffffffff163b11156113fc578273ffffffffffffffffffffffffffffffffffffffff1663150b7a02611293610e0b565b8685856040518563ffffffff1660e01b81526004016112b5949392919061267d565b6020604051808303815f875af19250505080156112f057506040513d601f19601f820116820180604052508101906112ed91906126db565b60015b611371573d805f811461131e576040519150601f19603f3d011682016040523d82523d5f602084013e611323565b606091505b505f81510361136957836040517f64a0ae920000000000000000000000000000000000000000000000000000000081526004016113609190612158565b60405180910390fd5b805181602001fd5b63150b7a0260e01b7bffffffffffffffffffffffffffffffffffffffffffffffffffffffff1916817bffffffffffffffffffffffffffffffffffffffffffffffffffffffff1916146113fa57836040517f64a0ae920000000000000000000000000000000000000000000000000000000081526004016113f19190612158565b60405180910390fd5b505b50505050565b5f7ff0c57e16840df040f15088dc2f81fe391c3923bec73e23a9662efc9c229c6a00905090565b61143161181c565b61143b828261185c565b5050565b61144761181c565b61144f611897565b565b61145961181c565b611462816118c7565b50565b61146d61181c565b565b606060405180602001604052805f815250905090565b60605f60016114938461194b565b0190505f8167ffffffffffffffff8111156114b1576114b06122ec565b5b6040519080825280601f01601f1916602001820160405280156114e35781602001600182028036833780820191505090505b5090505f82602001820190505b600115611544578080600190039150507f3031323334353637383961626364656600000000000000000000000000000000600a86061a8153600a858161153957611538612706565b5b0494505f85036114f0575b819350505050919050565b5f80611559610d17565b9050806002015f8481526020019081526020015f205f9054906101000a900473ffffffffffffffffffffffffffffffffffffffff16915050919050565b5f61159f610d17565b905081806115d957505f73ffffffffffffffffffffffffffffffffffffffff168373ffffffffffffffffffffffffffffffffffffffff1614155b1561170b575f6115e885610d3e565b90505f73ffffffffffffffffffffffffffffffffffffffff168473ffffffffffffffffffffffffffffffffffffffff161415801561165257508373ffffffffffffffffffffffffffffffffffffffff168173ffffffffffffffffffffffffffffffffffffffff1614155b801561166557506116638185610b8e565b155b156116a757836040517fa9fbf51f00000000000000000000000000000000000000000000000000000000815260040161169e9190612158565b60405180910390fd5b821561170957848673ffffffffffffffffffffffffffffffffffffffff168273ffffffffffffffffffffffffffffffffffffffff167f8c5be1e5ebec7d5bd14f71427d1e84f3dd0314c0f7b2291e5b200ac8c7c3b92560405160405180910390a45b505b84816004015f8681526020019081526020015f205f6101000a81548173ffffffffffffffffffffffffffffffffffffffff021916908373ffffffffffffffffffffffffffffffffffffffff1602179055505050505050565b5f61176c6117c0565b611777848484611a9c565b90509392505050565b6117886106eb565b6117be576040517f8dfc202b00000000000000000000000000000000000000000000000000000000815260040160405180910390fd5b565b6117c86106eb565b156117ff576040517fd93c066500000000000000000000000000000000000000000000000000000000815260040160405180910390fd5b565b61180b8383611cb9565b6118175f848484611250565b505050565b611824611dac565b61185a576040517fd7e6bcf800000000000000000000000000000000000000000000000000000000815260040160405180910390fd5b565b61186461181c565b5f61186d610d17565b905082815f01908161187f91906128c7565b508181600101908161189191906128c7565b50505050565b61189f61181c565b5f6118a8610f2e565b90505f815f015f6101000a81548160ff02191690831515021790555050565b6118cf61181c565b5f73ffffffffffffffffffffffffffffffffffffffff168173ffffffffffffffffffffffffffffffffffffffff160361193f575f6040517f1e4fbdf70000000000000000000000000000000000000000000000000000000081526004016119369190612158565b60405180910390fd5b61194881610f55565b50565b5f805f90507a184f03e93ff9f4daa797ed6e38ed64bf6a1f01000000000000000083106119a7577a184f03e93ff9f4daa797ed6e38ed64bf6a1f010000000000000000838161199d5761199c612706565b5b0492506040810190505b6d04ee2d6d415b85acef810000000083106119e4576d04ee2d6d415b85acef810000000083816119da576119d9612706565b5b0492506020810190505b662386f26fc100008310611a1357662386f26fc100008381611a0957611a08612706565b5b0492506010810190505b6305f5e1008310611a3c576305f5e1008381611a3257611a31612706565b5b0492506008810190505b6127108310611a61576127108381611a5757611a56612706565b5b0492506004810190505b60648310611a845760648381611a7a57611a79612706565b5b0492506002810190505b600a8310611a93576001810190505b80915050919050565b5f80611aa6610d17565b90505f611ab28561154f565b90505f73ffffffffffffffffffffffffffffffffffffffff168473ffffffffffffffffffffffffffffffffffffffff1614611af357611af2818587611dca565b5b5f73ffffffffffffffffffffffffffffffffffffffff168173ffffffffffffffffffffffffffffffffffffffff1614611b8057611b325f865f80611596565b6001826003015f8373ffffffffffffffffffffffffffffffffffffffff1673ffffffffffffffffffffffffffffffffffffffff1681526020019081526020015f205f82825403925050819055505b5f73ffffffffffffffffffffffffffffffffffffffff168673ffffffffffffffffffffffffffffffffffffffff1614611c01576001826003015f8873ffffffffffffffffffffffffffffffffffffffff1673ffffffffffffffffffffffffffffffffffffffff1681526020019081526020015f205f82825401925050819055505b85826002015f8781526020019081526020015f205f6101000a81548173ffffffffffffffffffffffffffffffffffffffff021916908373ffffffffffffffffffffffffffffffffffffffff160217905550848673ffffffffffffffffffffffffffffffffffffffff168273ffffffffffffffffffffffffffffffffffffffff167fddf252ad1be2c89b69c2b068fc378daa952ba7f163c4a11628f55a4df523b3ef60405160405180910390a480925050509392505050565b5f73ffffffffffffffffffffffffffffffffffffffff168273ffffffffffffffffffffffffffffffffffffffff1603611d29575f6040517f64a0ae92000000000000000000000000000000000000000000000000000000008152600401611d209190612158565b60405180910390fd5b5f611d3583835f610e24565b90505f73ffffffffffffffffffffffffffffffffffffffff168173ffffffffffffffffffffffffffffffffffffffff1614611da7575f6040517f73c6ac6e000000000000000000000000000000000000000000000000000000008152600401611d9e9190612158565b60405180910390fd5b505050565b5f611db5611402565b5f0160089054906101000a900460ff16905090565b611dd5838383611e8d565b611e88575f73ffffffffffffffffffffffffffffffffffffffff168373ffffffffffffffffffffffffffffffffffffffff1603611e4957806040517f7e273289000000000000000000000000000000000000000000000000000000008152600401611e409190612263565b60405180910390fd5b81816040517f177e802f000000000000000000000000000000000000000000000000000000008152600401611e7f929190612996565b60405180910390fd5b505050565b5f8073ffffffffffffffffffffffffffffffffffffffff168373ffffffffffffffffffffffffffffffffffffffff1614158015611f4457508273ffffffffffffffffffffffffffffffffffffffff168473ffffffffffffffffffffffffffffffffffffffff161480611f055750611f048484610b8e565b5b80611f4357508273ffffffffffffffffffffffffffffffffffffffff16611f2b83610dc4565b73ffffffffffffffffffffffffffffffffffffffff16145b5b90509392505050565b5f604051905090565b5f80fd5b5f80fd5b5f7fffffffff0000000000000000000000000000000000000000000000000000000082169050919050565b611f9281611f5e565b8114611f9c575f80fd5b50565b5f81359050611fad81611f89565b92915050565b5f60208284031215611fc857611fc7611f56565b5b5f611fd584828501611f9f565b91505092915050565b5f8115159050919050565b611ff281611fde565b82525050565b5f60208201905061200b5f830184611fe9565b92915050565b5f81519050919050565b5f82825260208201905092915050565b5f5b8381101561204857808201518184015260208101905061202d565b5f8484015250505050565b5f601f19601f8301169050919050565b5f61206d82612011565b612077818561201b565b935061208781856020860161202b565b61209081612053565b840191505092915050565b5f6020820190508181035f8301526120b38184612063565b905092915050565b5f819050919050565b6120cd816120bb565b81146120d7575f80fd5b50565b5f813590506120e8816120c4565b92915050565b5f6020828403121561210357612102611f56565b5b5f612110848285016120da565b91505092915050565b5f73ffffffffffffffffffffffffffffffffffffffff82169050919050565b5f61214282612119565b9050919050565b61215281612138565b82525050565b5f60208201905061216b5f830184612149565b92915050565b61217a81612138565b8114612184575f80fd5b50565b5f8135905061219581612171565b92915050565b5f80604083850312156121b1576121b0611f56565b5b5f6121be85828601612187565b92505060206121cf858286016120da565b9150509250929050565b5f805f606084860312156121f0576121ef611f56565b5b5f6121fd86828701612187565b935050602061220e86828701612187565b925050604061221f868287016120da565b9150509250925092565b5f6020828403121561223e5761223d611f56565b5b5f61224b84828501612187565b91505092915050565b61225d816120bb565b82525050565b5f6020820190506122765f830184612254565b92915050565b61228581611fde565b811461228f575f80fd5b50565b5f813590506122a08161227c565b92915050565b5f80604083850312156122bc576122bb611f56565b5b5f6122c985828601612187565b92505060206122da85828601612292565b9150509250929050565b5f80fd5b5f80fd5b7f4e487b71000000000000000000000000000000000000000000000000000000005f52604160045260245ffd5b61232282612053565b810181811067ffffffffffffffff82111715612341576123406122ec565b5b80604052505050565b5f612353611f4d565b905061235f8282612319565b919050565b5f67ffffffffffffffff82111561237e5761237d6122ec565b5b61238782612053565b9050602081019050919050565b828183375f83830152505050565b5f6123b46123af84612364565b61234a565b9050828152602081018484840111156123d0576123cf6122e8565b5b6123db848285612394565b509392505050565b5f82601f8301126123f7576123f66122e4565b5b81356124078482602086016123a2565b91505092915050565b5f805f806080858703121561242857612427611f56565b5b5f61243587828801612187565b945050602061244687828801612187565b9350506040612457878288016120da565b925050606085013567ffffffffffffffff81111561247857612477611f5a565b5b612484878288016123e3565b91505092959194509250565b5f80604083850312156124a6576124a5611f56565b5b5f6124b385828601612187565b92505060206124c485828601612187565b9150509250929050565b7f4e487b71000000000000000000000000000000000000000000000000000000005f52602260045260245ffd5b5f600282049050600182168061251257607f821691505b602082108103612525576125246124ce565b5b50919050565b5f60608201905061253e5f830186612149565b61254b6020830185612254565b6125586040830184612149565b949350505050565b5f819050919050565b5f67ffffffffffffffff82169050919050565b5f819050919050565b5f61259f61259a61259584612560565b61257c565b612569565b9050919050565b6125af81612585565b82525050565b5f6020820190506125c85f8301846125a6565b92915050565b5f81905092915050565b5f6125e282612011565b6125ec81856125ce565b93506125fc81856020860161202b565b80840191505092915050565b5f61261382856125d8565b915061261f82846125d8565b91508190509392505050565b5f81519050919050565b5f82825260208201905092915050565b5f61264f8261262b565b6126598185612635565b935061266981856020860161202b565b61267281612053565b840191505092915050565b5f6080820190506126905f830187612149565b61269d6020830186612149565b6126aa6040830185612254565b81810360608301526126bc8184612645565b905095945050505050565b5f815190506126d581611f89565b92915050565b5f602082840312156126f0576126ef611f56565b5b5f6126fd848285016126c7565b91505092915050565b7f4e487b71000000000000000000000000000000000000000000000000000000005f52601260045260245ffd5b5f819050815f5260205f209050919050565b5f6020601f8301049050919050565b5f82821b905092915050565b5f6008830261278f7fffffffffffffffffffffffffffffffffffffffffffffffffffffffffffffffff82612754565b6127998683612754565b95508019841693508086168417925050509392505050565b5f6127cb6127c66127c1846120bb565b61257c565b6120bb565b9050919050565b5f819050919050565b6127e4836127b1565b6127f86127f0826127d2565b848454612760565b825550505050565b5f90565b61280c612800565b6128178184846127db565b505050565b5b8181101561283a5761282f5f82612804565b60018101905061281d565b5050565b601f82111561287f5761285081612733565b61285984612745565b81016020851015612868578190505b61287c61287485612745565b83018261281c565b50505b505050565b5f82821c905092915050565b5f61289f5f1984600802612884565b1980831691505092915050565b5f6128b78383612890565b9150826002028217905092915050565b6128d082612011565b67ffffffffffffffff8111156128e9576128e86122ec565b5b6128f382546124fb565b6128fe82828561283e565b5f60209050601f83116001811461292f575f841561291d578287015190505b61292785826128ac565b86555061298e565b601f19841661293d86612733565b5f5b828110156129645784890151825560018201915060208501945060208101905061293f565b86831015612981578489015161297d601f891682612890565b8355505b6001600288020188555050505b505050505050565b5f6040820190506129a95f830185612149565b6129b66020830184612254565b939250505056fea26469706673582212203d9035d329b2d25a72ab5eafc5b3728bb2f4f06df66519bc1aacec287b60daaa64736f6c63430008140033",
  "immutableReferences": {},
  "source": "// SPDX-License-Identifier: MIT\npragma solidity ^0.8.18;\n\nimport \"@openzeppelin/contracts-upgradeable/token/ERC721/ERC721Upgradeable.sol\";\nimport \"@openzeppelin/contracts-upgradeable/token/ERC721/extensions/ERC721PausableUpgradeable.sol\";\nimport \"@openzeppelin/contracts-upgradeable/access/OwnableUpgradeable.sol\";\nimport \"@openzeppelin/contracts-upgradeable/token/ERC721/extensions/ERC721BurnableUpgradeable.sol\";\nimport \"@openzeppelin/contracts-upgradeable/proxy/utils/Initializable.sol\";\n\ncontract TicketXP is Initializable, ERC721Upgradeable, ERC721PausableUpgradeable, OwnableUpgradeable, ERC721BurnableUpgradeable {\n    /// @custom:oz-upgrades-unsafe-allow constructor\n    constructor() {\n        _disableInitializers();\n    }\n\n    function initialize(address initialOwner) initializer public {\n        __ERC721_init(\"MyToken\", \"MTK\");\n        __ERC721Pausable_init();\n        __Ownable_init(initialOwner);\n        __ERC721Burnable_init();\n    }\n\n    function pause() public onlyOwner {\n        _pause();\n    }\n\n    function unpause() public onlyOwner {\n        _unpause();\n    }\n\n    function safeMint(address to, uint256 tokenId) public onlyOwner {\n        _safeMint(to, tokenId);\n    }\n\n    // The following functions are overrides required by Solidity.\n\n    function _update(address to, uint256 tokenId, address auth)\n        internal\n        override(ERC721Upgradeable, ERC721PausableUpgradeable)\n        returns (address)\n    {\n        return super._update(to, tokenId, auth);\n    }\n}\n",
  "sourcePath": "/home/jack/TicketXP-CV-showcase-/contracts/TicketXP.sol",
  "compiler": {
    "name": "solc",
    "version": "0.8.20+commit.a1b79de6.Emscripten.clang"
  },
  "schemaVersion": "3.4.3",
  "updatedAt": "2023-10-24T14:37:26.435Z",
  "devdoc": {
    "errors": {
      "ERC721IncorrectOwner(address,uint256,address)": [
        {
          "details": "Indicates an error related to the ownership over a particular token. Used in transfers.",
          "params": {
            "owner": "Address of the current owner of a token.",
            "sender": "Address whose tokens are being transferred.",
            "tokenId": "Identifier number of a token."
          }
        }
      ],
      "ERC721InsufficientApproval(address,uint256)": [
        {
          "details": "Indicates a failure with the `operator`s approval. Used in transfers.",
          "params": {
            "operator": "Address that may be allowed to operate on tokens without being their owner.",
            "tokenId": "Identifier number of a token."
          }
        }
      ],
      "ERC721InvalidApprover(address)": [
        {
          "details": "Indicates a failure with the `approver` of a token to be approved. Used in approvals.",
          "params": {
            "approver": "Address initiating an approval operation."
          }
        }
      ],
      "ERC721InvalidOperator(address)": [
        {
          "details": "Indicates a failure with the `operator` to be approved. Used in approvals.",
          "params": {
            "operator": "Address that may be allowed to operate on tokens without being their owner."
          }
        }
      ],
      "ERC721InvalidOwner(address)": [
        {
          "details": "Indicates that an address can't be an owner. For example, `address(0)` is a forbidden owner in EIP-20. Used in balance queries.",
          "params": {
            "owner": "Address of the current owner of a token."
          }
        }
      ],
      "ERC721InvalidReceiver(address)": [
        {
          "details": "Indicates a failure with the token `receiver`. Used in transfers.",
          "params": {
            "receiver": "Address to which tokens are being transferred."
          }
        }
      ],
      "ERC721InvalidSender(address)": [
        {
          "details": "Indicates a failure with the token `sender`. Used in transfers.",
          "params": {
            "sender": "Address whose tokens are being transferred."
          }
        }
      ],
      "ERC721NonexistentToken(uint256)": [
        {
          "details": "Indicates a `tokenId` whose `owner` is the zero address.",
          "params": {
            "tokenId": "Identifier number of a token."
          }
        }
      ],
      "EnforcedPause()": [
        {
          "details": "The operation failed because the contract is paused."
        }
      ],
      "ExpectedPause()": [
        {
          "details": "The operation failed because the contract is not paused."
        }
      ],
      "InvalidInitialization()": [
        {
          "details": "The contract is already initialized."
        }
      ],
      "NotInitializing()": [
        {
          "details": "The contract is not initializing."
        }
      ],
      "OwnableInvalidOwner(address)": [
        {
          "details": "The owner is not a valid owner account. (eg. `address(0)`)"
        }
      ],
      "OwnableUnauthorizedAccount(address)": [
        {
          "details": "The caller account is not authorized to perform an operation."
        }
      ]
    },
    "events": {
      "Approval(address,address,uint256)": {
        "details": "Emitted when `owner` enables `approved` to manage the `tokenId` token."
      },
      "ApprovalForAll(address,address,bool)": {
        "details": "Emitted when `owner` enables or disables (`approved`) `operator` to manage all of its assets."
      },
      "Initialized(uint64)": {
        "details": "Triggered when the contract has been initialized or reinitialized."
      },
      "Paused(address)": {
        "details": "Emitted when the pause is triggered by `account`."
      },
      "Transfer(address,address,uint256)": {
        "details": "Emitted when `tokenId` token is transferred from `from` to `to`."
      },
      "Unpaused(address)": {
        "details": "Emitted when the pause is lifted by `account`."
      }
    },
    "kind": "dev",
    "methods": {
      "approve(address,uint256)": {
        "details": "See {IERC721-approve}."
      },
      "balanceOf(address)": {
        "details": "See {IERC721-balanceOf}."
      },
      "burn(uint256)": {
        "details": "Burns `tokenId`. See {ERC721-_burn}. Requirements: - The caller must own `tokenId` or be an approved operator."
      },
      "constructor": {
        "custom:oz-upgrades-unsafe-allow": "constructor"
      },
      "getApproved(uint256)": {
        "details": "See {IERC721-getApproved}."
      },
      "isApprovedForAll(address,address)": {
        "details": "See {IERC721-isApprovedForAll}."
      },
      "name()": {
        "details": "See {IERC721Metadata-name}."
      },
      "owner()": {
        "details": "Returns the address of the current owner."
      },
      "ownerOf(uint256)": {
        "details": "See {IERC721-ownerOf}."
      },
      "paused()": {
        "details": "Returns true if the contract is paused, and false otherwise."
      },
      "renounceOwnership()": {
        "details": "Leaves the contract without owner. It will not be possible to call `onlyOwner` functions. Can only be called by the current owner. NOTE: Renouncing ownership will leave the contract without an owner, thereby disabling any functionality that is only available to the owner."
      },
      "safeTransferFrom(address,address,uint256)": {
        "details": "See {IERC721-safeTransferFrom}."
      },
      "safeTransferFrom(address,address,uint256,bytes)": {
        "details": "See {IERC721-safeTransferFrom}."
      },
      "setApprovalForAll(address,bool)": {
        "details": "See {IERC721-setApprovalForAll}."
      },
      "supportsInterface(bytes4)": {
        "details": "See {IERC165-supportsInterface}."
      },
      "symbol()": {
        "details": "See {IERC721Metadata-symbol}."
      },
      "tokenURI(uint256)": {
        "details": "See {IERC721Metadata-tokenURI}."
      },
      "transferFrom(address,address,uint256)": {
        "details": "See {IERC721-transferFrom}."
      },
      "transferOwnership(address)": {
        "details": "Transfers ownership of the contract to a new account (`newOwner`). Can only be called by the current owner."
      }
    },
    "version": 1
  },
  "userdoc": {
    "kind": "user",
    "methods": {},
    "version": 1
  }
}