{
  "contractName": "TicketNFT",
  "abi": [
    {
      "inputs": [
        {
          "internalType": "uint64",
          "name": "_numberOfTickets",
          "type": "uint64"
        },
        {
          "internalType": "uint256",
          "name": "_ticketPrice",
          "type": "uint256"
        }
      ],
      "stateMutability": "nonpayable",
      "type": "constructor"
    },
    {
      "inputs": [],
      "name": "numberOfTickets",
      "outputs": [
        {
          "internalType": "uint64",
          "name": "",
          "type": "uint64"
        }
      ],
      "stateMutability": "view",
      "type": "function"
    },
    {
      "inputs": [],
      "name": "ticketPrice",
      "outputs": [
        {
          "internalType": "uint256",
          "name": "",
          "type": "uint256"
        }
      ],
      "stateMutability": "view",
      "type": "function"
    },
    {
      "inputs": [
        {
          "internalType": "uint64",
          "name": "",
          "type": "uint64"
        }
      ],
      "name": "tickets",
      "outputs": [
        {
          "internalType": "address",
          "name": "",
          "type": "address"
        }
      ],
      "stateMutability": "view",
      "type": "function"
    },
    {
      "inputs": [],
      "name": "ticketsSold",
      "outputs": [
        {
          "internalType": "uint64",
          "name": "",
          "type": "uint64"
        }
      ],
      "stateMutability": "view",
      "type": "function"
    },
    {
      "inputs": [
        {
          "internalType": "uint64",
          "name": "_amount",
          "type": "uint64"
        }
      ],
      "name": "buyTicket",
      "outputs": [],
      "stateMutability": "payable",
      "type": "function"
    },
    {
      "inputs": [
        {
          "internalType": "address",
          "name": "_to",
          "type": "address"
        },
        {
          "internalType": "uint64",
          "name": "_ticketId",
          "type": "uint64"
        }
      ],
      "name": "transfer",
      "outputs": [],
      "stateMutability": "nonpayable",
      "type": "function"
    },
    {
      "inputs": [
        {
          "internalType": "uint64",
          "name": "_ticketId",
          "type": "uint64"
        }
      ],
      "name": "ticketOwner",
      "outputs": [
        {
          "internalType": "address",
          "name": "",
          "type": "address"
        }
      ],
      "stateMutability": "view",
      "type": "function"
    }
  ],
  "bytecode": "0x608060405234801561001057600080fd5b50604051610a23380380610a23833981810160405281019061003291906100e3565b816000806101000a81548167ffffffffffffffff021916908367ffffffffffffffff160217905550806001819055505050610123565b600080fd5b600067ffffffffffffffff82169050919050565b61008a8161006d565b811461009557600080fd5b50565b6000815190506100a781610081565b92915050565b6000819050919050565b6100c0816100ad565b81146100cb57600080fd5b50565b6000815190506100dd816100b7565b92915050565b600080604083850312156100fa576100f9610068565b5b600061010885828601610098565b9250506020610119858286016100ce565b9150509250929050565b6108f1806101326000396000f3fe6080604052600436106100705760003560e01c80635d359fbd1161004e5780635d359fbd1461010857806388d733b5146101315780638b81c39d1461014d5780638f15024f1461018a57610070565b80631209b1f614610075578063410c630b146100a057806345745c10146100dd575b600080fd5b34801561008157600080fd5b5061008a6101b5565b604051610097919061055b565b60405180910390f35b3480156100ac57600080fd5b506100c760048036038101906100c291906105bb565b6101bb565b6040516100d49190610629565b60405180910390f35b3480156100e957600080fd5b506100f26101ee565b6040516100ff9190610653565b60405180910390f35b34801561011457600080fd5b5061012f600480360381019061012a919061069a565b610206565b005b61014b600480360381019061014691906105bb565b6102ef565b005b34801561015957600080fd5b50610174600480360381019061016f91906105bb565b6104d7565b6040516101819190610629565b60405180910390f35b34801561019657600080fd5b5061019f610528565b6040516101ac9190610653565b60405180910390f35b60015481565b60026020528060005260406000206000915054906101000a900473ffffffffffffffffffffffffffffffffffffffff1681565b60008054906101000a900467ffffffffffffffff1681565b600260008267ffffffffffffffff1667ffffffffffffffff16815260200190815260200160002060009054906101000a900473ffffffffffffffffffffffffffffffffffffffff1673ffffffffffffffffffffffffffffffffffffffff163373ffffffffffffffffffffffffffffffffffffffff161461028557600080fd5b81600260008367ffffffffffffffff1667ffffffffffffffff16815260200190815260200160002060006101000a81548173ffffffffffffffffffffffffffffffffffffffff021916908373ffffffffffffffffffffffffffffffffffffffff1602179055505050565b60008167ffffffffffffffff166001546103099190610709565b905080341461034d576040517f08c379a0000000000000000000000000000000000000000000000000000000008152600401610344906107c0565b60405180910390fd5b60008054906101000a900467ffffffffffffffff1667ffffffffffffffff1682600060089054906101000a900467ffffffffffffffff1661038e91906107e0565b67ffffffffffffffff16106103d8576040517f08c379a00000000000000000000000000000000000000000000000000000000081526004016103cf9061086a565b60405180910390fd5b60005b8267ffffffffffffffff168167ffffffffffffffff1610156104d2576000600881819054906101000a900467ffffffffffffffff168092919061041d9061088a565b91906101000a81548167ffffffffffffffff021916908367ffffffffffffffff1602179055505033600260008060089054906101000a900467ffffffffffffffff1667ffffffffffffffff1667ffffffffffffffff16815260200190815260200160002060006101000a81548173ffffffffffffffffffffffffffffffffffffffff021916908373ffffffffffffffffffffffffffffffffffffffff16021790555080806104ca9061088a565b9150506103db565b505050565b6000600260008367ffffffffffffffff1667ffffffffffffffff16815260200190815260200160002060009054906101000a900473ffffffffffffffffffffffffffffffffffffffff169050919050565b600060089054906101000a900467ffffffffffffffff1681565b6000819050919050565b61055581610542565b82525050565b6000602082019050610570600083018461054c565b92915050565b600080fd5b600067ffffffffffffffff82169050919050565b6105988161057b565b81146105a357600080fd5b50565b6000813590506105b58161058f565b92915050565b6000602082840312156105d1576105d0610576565b5b60006105df848285016105a6565b91505092915050565b600073ffffffffffffffffffffffffffffffffffffffff82169050919050565b6000610613826105e8565b9050919050565b61062381610608565b82525050565b600060208201905061063e600083018461061a565b92915050565b61064d8161057b565b82525050565b60006020820190506106686000830184610644565b92915050565b61067781610608565b811461068257600080fd5b50565b6000813590506106948161066e565b92915050565b600080604083850312156106b1576106b0610576565b5b60006106bf85828601610685565b92505060206106d0858286016105a6565b9150509250929050565b7f4e487b7100000000000000000000000000000000000000000000000000000000600052601160045260246000fd5b600061071482610542565b915061071f83610542565b9250817fffffffffffffffffffffffffffffffffffffffffffffffffffffffffffffffff0483118215151615610758576107576106da565b5b828202905092915050565b600082825260208201905092915050565b7f57726f6e6720616d6f756e742073656e74000000000000000000000000000000600082015250565b60006107aa601183610763565b91506107b582610774565b602082019050919050565b600060208201905081810360008301526107d98161079d565b9050919050565b60006107eb8261057b565b91506107f68361057b565b92508267ffffffffffffffff03821115610813576108126106da565b5b828201905092915050565b7f546f6f206d616e79207469636b65747300000000000000000000000000000000600082015250565b6000610854601083610763565b915061085f8261081e565b602082019050919050565b6000602082019050818103600083015261088381610847565b9050919050565b60006108958261057b565b915067ffffffffffffffff8214156108b0576108af6106da565b5b60018201905091905056fea2646970667358221220beae4023e45d82e71813aaa86d5c8151d98e89371d2d08e8c853f36161087d4764736f6c63430008090033",
  "immutableReferences": {},
  "source": "// SPDX-License-Identifier: MIT\npragma solidity ^0.8.9;\n\ncontract TicketNFT{\n\n    uint64 public  numberOfTickets;\n    uint64 public ticketsSold;\n    uint256 public ticketPrice;\n\n    mapping (uint64 => address) public tickets;\n\n    function buyTicket (uint64 _amount) public payable {\n        uint256 totalPrice = ticketPrice * _amount;\n        \n        //Don't give tickets if the wrong amount was paid\n        //Don't give out more tickets than what is avalible\n        require(msg.value == totalPrice, \"Wrong amount sent\");\n        require(ticketsSold + _amount < numberOfTickets, \"Too many tickets\");\n        for(uint64 i; i < _amount; i++){\n            ticketsSold ++;\n            tickets[ticketsSold] = msg.sender;\n        }\n    }\n\n    function transfer(address _to, uint64 _ticketId) public {\n        require(msg.sender == tickets[_ticketId]);\n        tickets[_ticketId] = _to;\n    }\n\n    function ticketOwner (uint64 _ticketId) public view returns (address){\n        return tickets[_ticketId];\n    }\n\n    constructor(uint64 _numberOfTickets, uint256 _ticketPrice) {\n        numberOfTickets = _numberOfTickets;\n        ticketPrice = _ticketPrice;\n    }\n}",
  "sourcePath": "/home/jack/TicketXP-CV-showcase-/contracts/EventXP.sol",
  "compiler": {
    "name": "solc",
    "version": "0.8.9+commit.e5eed63a.Emscripten.clang"
  },
  "schemaVersion": "3.4.16",
  "updatedAt": "2023-11-08T14:53:45.933Z",
  "devdoc": {
    "kind": "dev",
    "methods": {},
    "version": 1
  },
  "userdoc": {
    "kind": "user",
    "methods": {},
    "version": 1
  }
}